{
  "address": "0x67108fc2fb40a627d993b126c5111fbc8dbd545c",
  "abi": [
    {
      "anonymous": false,
      "inputs": [
        {
          "components": [
            {
              "internalType": "address",
              "name": "to",
              "type": "address"
            },
            {
              "internalType": "uint256",
              "name": "gas",
              "type": "uint256"
            },
            {
              "internalType": "bytes",
              "name": "data",
              "type": "bytes"
            },
            {
              "internalType": "uint8",
              "name": "transactionType",
              "type": "uint8"
            },
            {
              "internalType": "uint256",
              "name": "chainId",
              "type": "uint256"
            },
            {
              "components": [
                {
                  "internalType": "address",
                  "name": "addr",
                  "type": "address"
                },
                {
                  "internalType": "bytes32[]",
                  "name": "storageKeys",
                  "type": "bytes32[]"
                }
              ],
              "internalType": "struct ExecutionOnChain.AccessListEntry[]",
              "name": "accessList",
              "type": "tuple[]"
            },
            {
              "components": [
                {
                  "internalType": "uint256",
                  "name": "maxFeePerGas",
                  "type": "uint256"
                },
                {
                  "internalType": "uint256",
                  "name": "maxPriorityFeePerGas",
                  "type": "uint256"
                },
                {
                  "internalType": "uint256",
                  "name": "duration",
                  "type": "uint256"
                }
              ],
              "internalType": "struct ExecutionOnChain.BroadcastSchedule[]",
              "name": "schedule",
              "type": "tuple[]"
            }
          ],
          "indexed": false,
          "internalType": "struct ExecutionOnChain.ScheduledExecution",
          "name": "execution",
          "type": "tuple"
        }
      ],
      "name": "ExecutionSubmitted",
      "type": "event"
    },
    {
      "inputs": [
        {
          "components": [
            {
              "internalType": "address",
              "name": "to",
              "type": "address"
            },
            {
              "internalType": "uint256",
              "name": "gas",
              "type": "uint256"
            },
            {
              "internalType": "bytes",
              "name": "data",
              "type": "bytes"
            },
            {
              "internalType": "uint8",
              "name": "transactionType",
              "type": "uint8"
            },
            {
              "internalType": "uint256",
              "name": "chainId",
              "type": "uint256"
            },
            {
              "components": [
                {
                  "internalType": "address",
                  "name": "addr",
                  "type": "address"
                },
                {
                  "internalType": "bytes32[]",
                  "name": "storageKeys",
                  "type": "bytes32[]"
                }
              ],
              "internalType": "struct ExecutionOnChain.AccessListEntry[]",
              "name": "accessList",
              "type": "tuple[]"
            },
            {
              "components": [
                {
                  "internalType": "uint256",
                  "name": "maxFeePerGas",
                  "type": "uint256"
                },
                {
                  "internalType": "uint256",
                  "name": "maxPriorityFeePerGas",
                  "type": "uint256"
                },
                {
                  "internalType": "uint256",
                  "name": "duration",
                  "type": "uint256"
                }
              ],
              "internalType": "struct ExecutionOnChain.BroadcastSchedule[]",
              "name": "schedule",
              "type": "tuple[]"
            }
          ],
          "internalType": "struct ExecutionOnChain.ScheduledExecution",
          "name": "execution",
          "type": "tuple"
        }
      ],
      "name": "execute",
      "outputs": [],
      "stateMutability": "nonpayable",
      "type": "function"
    }
  ],
  "contractName": "ExecutionOnChain",
  "sourceName": "src/ExecutionOnChain.sol",
  "bytecode": "0x60808060405234601557610406908161001b8239f35b600080fdfe6080604090808252600436101561001557600080fd5b600091823560e01c6366a860ec1461002c57600080fd5b346103435760207ffffffffffffffffffffffffffffffffffffffffffffffffffffffffffffffffc8181360112610353576004359167ffffffffffffffff9384841161034f578360040160e08536039485011261034b578287526101009473ffffffffffffffffffffffffffffffffffffffff94856100aa84610357565b16898601526024820135848a01527fffffffffffffffffffffffffffffffffffffffffffffffffffffffffffffffdd018960448301358281121561034757830197602460048a01359901948a8a11610343578936038613610343578b98838b978860609c8d810160e0905281878201526101209e8f93848301370101527fffffffffffffffffffffffffffffffffffffffffffffffffffffffffffffffe0601f819801168d019a8b019260648701359360ff851680950361033f5761018a8f929d93959460c095608085015260848a013560a085015260a48a019061037d565b9483919e869486030191015252610140808201936005918460051b8401019c8096935b85851061025e57505050505050505060c48201359081121561025a5701946024600487013596019686116102565784860236038713610256578392959493918882030160e089015284815201949387915b84831061022f57887fb7a15cc2c98f6f49335726c1cffb62a1decf47a031819d3b150a16efb5eba3e18989038aa180f35b853587528581013587820152858201358783015295830195948301946001909201916101fe565b8880fd5b8980fd5b909192939495969d8e7ffffffffffffffffffffffffffffffffffffffffffffffffffffffffffffffec0838303018952357fffffffffffffffffffffffffffffffffffffffffffffffffffffffffffffffc184360301811215610338578d918d6102db86829401886102cf82610357565b1684528581019061037d565b93849291958401528201527f07ffffffffffffffffffffffffffffffffffffffffffffffffffffffffffffff8211610330578f90928f938493891b80928483013701019f0197019594600101939291906101ad565b505050508f80fd5b5050508f80fd5b8580fd5b8280fd5b5080fd5b8780fd5b8680fd5b8480fd5b359073ffffffffffffffffffffffffffffffffffffffff8216820361037857565b600080fd5b90357fffffffffffffffffffffffffffffffffffffffffffffffffffffffffffffffe18236030181121561037857016020813591019167ffffffffffffffff8211610378578160051b360383136103785756fea26469706673582212203207838513bde36b3430cef23fedd0389984d372646185ef258e44cd79a4a94c64736f6c63430008190033",
  "linkReferences": {},
  "deployedLinkReferences": {},
  "devdoc": {
    "kind": "dev",
    "methods": {},
    "version": 1
  },
  "evm": {
    "gasEstimates": {
      "creation": {
        "codeDepositCost": "206000",
        "executionCost": "257",
        "totalCost": "206257"
      },
      "external": {
        "execute((address,uint256,bytes,uint8,uint256,(address,bytes32[])[],(uint256,uint256,uint256)[]))": "infinite"
      }
    }
  },
  "storageLayout": {
    "storage": [],
    "types": null
  },
  "userdoc": {
    "kind": "user",
    "methods": {},
    "notice": "a registry that let user send greetings to the world  It is used as a demo for jolly-roger,  a fully featured SDK to build entirely decentralised apps and games  It is inteded to be deployed via upgradeable proxy locally  to showcase the HCR (Hot Contract Replacement) capabilities of `hardhat-deploy`  but immutable on live networks.",
    "version": 1
  },
  "argsData": "0x",
  "transaction": {
    "hash": "0xf5d29d062aabcf3fd2e66d13daa250be5984d06c507b27a16de833cc9c9f733b",
    "nonce": "0x1be",
    "origin": "0x61c461ecc993aadeb7e4b47e96d1b8cc37314b20"
  }
}