{
  "address": "0xc8fe05683d5f2bafa3ffed36003e839af0ee38c9",
  "abi": [
    {
      "anonymous": false,
      "inputs": [
        {
          "components": [
            {
              "internalType": "address",
              "name": "to",
              "type": "address"
            },
            {
              "internalType": "uint256",
              "name": "gas",
              "type": "uint256"
            },
            {
              "internalType": "bytes",
              "name": "data",
              "type": "bytes"
            },
            {
              "internalType": "uint8",
              "name": "transactionType",
              "type": "uint8"
            },
            {
              "internalType": "uint256",
              "name": "chainId",
              "type": "uint256"
            },
            {
              "components": [
                {
                  "internalType": "address",
                  "name": "addr",
                  "type": "address"
                },
                {
                  "internalType": "bytes32[]",
                  "name": "storageKeys",
                  "type": "bytes32[]"
                }
              ],
              "internalType": "struct ExecutionOnChain.AccessListEntry[]",
              "name": "accessList",
              "type": "tuple[]"
            },
            {
              "components": [
                {
                  "internalType": "uint256",
                  "name": "maxFeePerGas",
                  "type": "uint256"
                },
                {
                  "internalType": "uint256",
                  "name": "maxPriorityFeePerGas",
                  "type": "uint256"
                },
                {
                  "internalType": "uint256",
                  "name": "duration",
                  "type": "uint256"
                }
              ],
              "internalType": "struct ExecutionOnChain.BroadcastSchedule[]",
              "name": "schedule",
              "type": "tuple[]"
            }
          ],
          "indexed": false,
          "internalType": "struct ExecutionOnChain.ScheduledExecution",
          "name": "execution",
          "type": "tuple"
        }
      ],
      "name": "ExecutionSubmitted",
      "type": "event"
    },
    {
      "inputs": [
        {
          "components": [
            {
              "internalType": "address",
              "name": "to",
              "type": "address"
            },
            {
              "internalType": "uint256",
              "name": "gas",
              "type": "uint256"
            },
            {
              "internalType": "bytes",
              "name": "data",
              "type": "bytes"
            },
            {
              "internalType": "uint8",
              "name": "transactionType",
              "type": "uint8"
            },
            {
              "internalType": "uint256",
              "name": "chainId",
              "type": "uint256"
            },
            {
              "components": [
                {
                  "internalType": "address",
                  "name": "addr",
                  "type": "address"
                },
                {
                  "internalType": "bytes32[]",
                  "name": "storageKeys",
                  "type": "bytes32[]"
                }
              ],
              "internalType": "struct ExecutionOnChain.AccessListEntry[]",
              "name": "accessList",
              "type": "tuple[]"
            },
            {
              "components": [
                {
                  "internalType": "uint256",
                  "name": "maxFeePerGas",
                  "type": "uint256"
                },
                {
                  "internalType": "uint256",
                  "name": "maxPriorityFeePerGas",
                  "type": "uint256"
                },
                {
                  "internalType": "uint256",
                  "name": "duration",
                  "type": "uint256"
                }
              ],
              "internalType": "struct ExecutionOnChain.BroadcastSchedule[]",
              "name": "schedule",
              "type": "tuple[]"
            }
          ],
          "internalType": "struct ExecutionOnChain.ScheduledExecution",
          "name": "execution",
          "type": "tuple"
        }
      ],
      "name": "execute",
      "outputs": [],
      "stateMutability": "nonpayable",
      "type": "function"
    }
  ],
  "contractName": "ExecutionOnChain",
  "sourceName": "src/ExecutionOnChain.sol",
  "linkReferences": {},
  "deployedLinkReferences": {},
  "devdoc": {
    "kind": "dev",
    "methods": {},
    "version": 1
  },
  "evm": {
    "bytecode": {
      "linkReferences": {},
      "object": "60808060405234601557610406908161001b8239f35b600080fdfe6080604090808252600436101561001557600080fd5b600091823560e01c6366a860ec1461002c57600080fd5b346103435760207ffffffffffffffffffffffffffffffffffffffffffffffffffffffffffffffffc8181360112610353576004359167ffffffffffffffff9384841161034f578360040160e08536039485011261034b578287526101009473ffffffffffffffffffffffffffffffffffffffff94856100aa84610357565b16898601526024820135848a01527fffffffffffffffffffffffffffffffffffffffffffffffffffffffffffffffdd018960448301358281121561034757830197602460048a01359901948a8a11610343578936038613610343578b98838b978860609c8d810160e0905281878201526101209e8f93848301370101527fffffffffffffffffffffffffffffffffffffffffffffffffffffffffffffffe0601f819801168d019a8b019260648701359360ff851680950361033f5761018a8f929d93959460c095608085015260848a013560a085015260a48a019061037d565b9483919e869486030191015252610140808201936005918460051b8401019c8096935b85851061025e57505050505050505060c48201359081121561025a5701946024600487013596019686116102565784860236038713610256578392959493918882030160e089015284815201949387915b84831061022f57887fb7a15cc2c98f6f49335726c1cffb62a1decf47a031819d3b150a16efb5eba3e18989038aa180f35b853587528581013587820152858201358783015295830195948301946001909201916101fe565b8880fd5b8980fd5b909192939495969d8e7ffffffffffffffffffffffffffffffffffffffffffffffffffffffffffffffec0838303018952357fffffffffffffffffffffffffffffffffffffffffffffffffffffffffffffffc184360301811215610338578d918d6102db86829401886102cf82610357565b1684528581019061037d565b93849291958401528201527f07ffffffffffffffffffffffffffffffffffffffffffffffffffffffffffffff8211610330578f90928f938493891b80928483013701019f0197019594600101939291906101ad565b505050508f80fd5b5050508f80fd5b8580fd5b8280fd5b5080fd5b8780fd5b8680fd5b8480fd5b359073ffffffffffffffffffffffffffffffffffffffff8216820361037857565b600080fd5b90357fffffffffffffffffffffffffffffffffffffffffffffffffffffffffffffffe18236030181121561037857016020813591019167ffffffffffffffff8211610378578160051b360383136103785756fea26469706673582212203207838513bde36b3430cef23fedd0389984d372646185ef258e44cd79a4a94c64736f6c63430008190033",
      "opcodes": "PUSH1 0x80 DUP1 PUSH1 0x40 MSTORE CALLVALUE PUSH1 0x15 JUMPI PUSH2 0x406 SWAP1 DUP2 PUSH2 0x1B DUP3 CODECOPY RETURN JUMPDEST PUSH1 0x0 DUP1 REVERT INVALID PUSH1 0x80 PUSH1 0x40 SWAP1 DUP1 DUP3 MSTORE PUSH1 0x4 CALLDATASIZE LT ISZERO PUSH2 0x15 JUMPI PUSH1 0x0 DUP1 REVERT JUMPDEST PUSH1 0x0 SWAP2 DUP3 CALLDATALOAD PUSH1 0xE0 SHR PUSH4 0x66A860EC EQ PUSH2 0x2C JUMPI PUSH1 0x0 DUP1 REVERT JUMPDEST CALLVALUE PUSH2 0x343 JUMPI PUSH1 0x20 PUSH32 0xFFFFFFFFFFFFFFFFFFFFFFFFFFFFFFFFFFFFFFFFFFFFFFFFFFFFFFFFFFFFFFFC DUP2 DUP2 CALLDATASIZE ADD SLT PUSH2 0x353 JUMPI PUSH1 0x4 CALLDATALOAD SWAP2 PUSH8 0xFFFFFFFFFFFFFFFF SWAP4 DUP5 DUP5 GT PUSH2 0x34F JUMPI DUP4 PUSH1 0x4 ADD PUSH1 0xE0 DUP6 CALLDATASIZE SUB SWAP5 DUP6 ADD SLT PUSH2 0x34B JUMPI DUP3 DUP8 MSTORE PUSH2 0x100 SWAP5 PUSH20 0xFFFFFFFFFFFFFFFFFFFFFFFFFFFFFFFFFFFFFFFF SWAP5 DUP6 PUSH2 0xAA DUP5 PUSH2 0x357 JUMP JUMPDEST AND DUP10 DUP7 ADD MSTORE PUSH1 0x24 DUP3 ADD CALLDATALOAD DUP5 DUP11 ADD MSTORE PUSH32 0xFFFFFFFFFFFFFFFFFFFFFFFFFFFFFFFFFFFFFFFFFFFFFFFFFFFFFFFFFFFFFFDD ADD DUP10 PUSH1 0x44 DUP4 ADD CALLDATALOAD DUP3 DUP2 SLT ISZERO PUSH2 0x347 JUMPI DUP4 ADD SWAP8 PUSH1 0x24 PUSH1 0x4 DUP11 ADD CALLDATALOAD SWAP10 ADD SWAP5 DUP11 DUP11 GT PUSH2 0x343 JUMPI DUP10 CALLDATASIZE SUB DUP7 SGT PUSH2 0x343 JUMPI DUP12 SWAP9 DUP4 DUP12 SWAP8 DUP9 PUSH1 0x60 SWAP13 DUP14 DUP2 ADD PUSH1 0xE0 SWAP1 MSTORE DUP2 DUP8 DUP3 ADD MSTORE PUSH2 0x120 SWAP15 DUP16 SWAP4 DUP5 DUP4 ADD CALLDATACOPY ADD ADD MSTORE PUSH32 0xFFFFFFFFFFFFFFFFFFFFFFFFFFFFFFFFFFFFFFFFFFFFFFFFFFFFFFFFFFFFFFE0 PUSH1 0x1F DUP2 SWAP9 ADD AND DUP14 ADD SWAP11 DUP12 ADD SWAP3 PUSH1 0x64 DUP8 ADD CALLDATALOAD SWAP4 PUSH1 0xFF DUP6 AND DUP1 SWAP6 SUB PUSH2 0x33F JUMPI PUSH2 0x18A DUP16 SWAP3 SWAP14 SWAP4 SWAP6 SWAP5 PUSH1 0xC0 SWAP6 PUSH1 0x80 DUP6 ADD MSTORE PUSH1 0x84 DUP11 ADD CALLDATALOAD PUSH1 0xA0 DUP6 ADD MSTORE PUSH1 0xA4 DUP11 ADD SWAP1 PUSH2 0x37D JUMP JUMPDEST SWAP5 DUP4 SWAP2 SWAP15 DUP7 SWAP5 DUP7 SUB ADD SWAP2 ADD MSTORE MSTORE PUSH2 0x140 DUP1 DUP3 ADD SWAP4 PUSH1 0x5 SWAP2 DUP5 PUSH1 0x5 SHL DUP5 ADD ADD SWAP13 DUP1 SWAP7 SWAP4 JUMPDEST DUP6 DUP6 LT PUSH2 0x25E JUMPI POP POP POP POP POP POP POP POP PUSH1 0xC4 DUP3 ADD CALLDATALOAD SWAP1 DUP2 SLT ISZERO PUSH2 0x25A JUMPI ADD SWAP5 PUSH1 0x24 PUSH1 0x4 DUP8 ADD CALLDATALOAD SWAP7 ADD SWAP7 DUP7 GT PUSH2 0x256 JUMPI DUP5 DUP7 MUL CALLDATASIZE SUB DUP8 SGT PUSH2 0x256 JUMPI DUP4 SWAP3 SWAP6 SWAP5 SWAP4 SWAP2 DUP9 DUP3 SUB ADD PUSH1 0xE0 DUP10 ADD MSTORE DUP5 DUP2 MSTORE ADD SWAP5 SWAP4 DUP8 SWAP2 JUMPDEST DUP5 DUP4 LT PUSH2 0x22F JUMPI DUP9 PUSH32 0xB7A15CC2C98F6F49335726C1CFFB62A1DECF47A031819D3B150A16EFB5EBA3E1 DUP10 DUP10 SUB DUP11 LOG1 DUP1 RETURN JUMPDEST DUP6 CALLDATALOAD DUP8 MSTORE DUP6 DUP2 ADD CALLDATALOAD DUP8 DUP3 ADD MSTORE DUP6 DUP3 ADD CALLDATALOAD DUP8 DUP4 ADD MSTORE SWAP6 DUP4 ADD SWAP6 SWAP5 DUP4 ADD SWAP5 PUSH1 0x1 SWAP1 SWAP3 ADD SWAP2 PUSH2 0x1FE JUMP JUMPDEST DUP9 DUP1 REVERT JUMPDEST DUP10 DUP1 REVERT JUMPDEST SWAP1 SWAP2 SWAP3 SWAP4 SWAP5 SWAP6 SWAP7 SWAP14 DUP15 PUSH32 0xFFFFFFFFFFFFFFFFFFFFFFFFFFFFFFFFFFFFFFFFFFFFFFFFFFFFFFFFFFFFFEC0 DUP4 DUP4 SUB ADD DUP10 MSTORE CALLDATALOAD PUSH32 0xFFFFFFFFFFFFFFFFFFFFFFFFFFFFFFFFFFFFFFFFFFFFFFFFFFFFFFFFFFFFFFC1 DUP5 CALLDATASIZE SUB ADD DUP2 SLT ISZERO PUSH2 0x338 JUMPI DUP14 SWAP2 DUP14 PUSH2 0x2DB DUP7 DUP3 SWAP5 ADD DUP9 PUSH2 0x2CF DUP3 PUSH2 0x357 JUMP JUMPDEST AND DUP5 MSTORE DUP6 DUP2 ADD SWAP1 PUSH2 0x37D JUMP JUMPDEST SWAP4 DUP5 SWAP3 SWAP2 SWAP6 DUP5 ADD MSTORE DUP3 ADD MSTORE PUSH32 0x7FFFFFFFFFFFFFFFFFFFFFFFFFFFFFFFFFFFFFFFFFFFFFFFFFFFFFFFFFFFFFF DUP3 GT PUSH2 0x330 JUMPI DUP16 SWAP1 SWAP3 DUP16 SWAP4 DUP5 SWAP4 DUP10 SHL DUP1 SWAP3 DUP5 DUP4 ADD CALLDATACOPY ADD ADD SWAP16 ADD SWAP8 ADD SWAP6 SWAP5 PUSH1 0x1 ADD SWAP4 SWAP3 SWAP2 SWAP1 PUSH2 0x1AD JUMP JUMPDEST POP POP POP POP DUP16 DUP1 REVERT JUMPDEST POP POP POP DUP16 DUP1 REVERT JUMPDEST DUP6 DUP1 REVERT JUMPDEST DUP3 DUP1 REVERT JUMPDEST POP DUP1 REVERT JUMPDEST DUP8 DUP1 REVERT JUMPDEST DUP7 DUP1 REVERT JUMPDEST DUP5 DUP1 REVERT JUMPDEST CALLDATALOAD SWAP1 PUSH20 0xFFFFFFFFFFFFFFFFFFFFFFFFFFFFFFFFFFFFFFFF DUP3 AND DUP3 SUB PUSH2 0x378 JUMPI JUMP JUMPDEST PUSH1 0x0 DUP1 REVERT JUMPDEST SWAP1 CALLDATALOAD PUSH32 0xFFFFFFFFFFFFFFFFFFFFFFFFFFFFFFFFFFFFFFFFFFFFFFFFFFFFFFFFFFFFFFE1 DUP3 CALLDATASIZE SUB ADD DUP2 SLT ISZERO PUSH2 0x378 JUMPI ADD PUSH1 0x20 DUP2 CALLDATALOAD SWAP2 ADD SWAP2 PUSH8 0xFFFFFFFFFFFFFFFF DUP3 GT PUSH2 0x378 JUMPI DUP2 PUSH1 0x5 SHL CALLDATASIZE SUB DUP4 SGT PUSH2 0x378 JUMPI JUMP INVALID LOG2 PUSH5 0x6970667358 0x22 SLT KECCAK256 ORIGIN SMOD DUP4 DUP6 SGT 0xBD 0xE3 PUSH12 0x3430CEF23FEDD0389984D372 PUSH5 0x6185EF258E PREVRANDAO 0xCD PUSH26 0xA4A94C64736F6C63430008190033000000000000000000000000 "
    },
    "gasEstimates": {
      "creation": {
        "codeDepositCost": "206000",
        "executionCost": "257",
        "totalCost": "206257"
      },
      "external": {
        "execute((address,uint256,bytes,uint8,uint256,(address,bytes32[])[],(uint256,uint256,uint256)[]))": "infinite"
      }
    },
    "methodIdentifiers": {
      "execute((address,uint256,bytes,uint8,uint256,(address,bytes32[])[],(uint256,uint256,uint256)[]))": "66a860ec"
    }
  },
  "storageLayout": {
    "storage": [],
    "types": null
  },
  "userdoc": {
    "kind": "user",
    "methods": {},
    "notice": "a registry that let user send greetings to the world  It is used as a demo for jolly-roger,  a fully featured SDK to build entirely decentralised apps and games  It is inteded to be deployed via upgradeable proxy locally  to showcase the HCR (Hot Contract Replacement) capabilities of `hardhat-deploy`  but immutable on live networks.",
    "version": 1
  },
  "argsData": "0x00000000000000000000000067108fc2fb40a627d993b126c5111fbc8dbd545c00000000000000000000000061c461ecc993aadeb7e4b47e96d1b8cc37314b2000000000000000000000000000000000000000000000000000000000000000600000000000000000000000000000000000000000000000000000000000000000",
  "transaction": {
    "hash": "0x59dc337cb3c7775fc00dc594cb1645766b6cc76233c4479f2f63d4c1571b3e43",
    "nonce": "0x1bf",
    "origin": "0x61c461ecc993aadeb7e4b47e96d1b8cc37314b20"
  },
  "updated": true,
  "_format": "hh-sol-artifact-1"
}