{
  "address": "0xf7f3ee596973af147ba37c1f418731c56aea6c55",
  "abi": [
    {
      "inputs": [
        {
          "internalType": "string",
          "name": "initialPrefix",
          "type": "string"
        }
      ],
      "stateMutability": "nonpayable",
      "type": "constructor"
    },
    {
      "anonymous": false,
      "inputs": [
        {
          "indexed": true,
          "internalType": "address",
          "name": "user",
          "type": "address"
        },
        {
          "indexed": true,
          "internalType": "address",
          "name": "delegated",
          "type": "address"
        },
        {
          "indexed": false,
          "internalType": "bool",
          "name": "yes",
          "type": "bool"
        }
      ],
      "name": "Delegated",
      "type": "event"
    },
    {
      "anonymous": false,
      "inputs": [
        {
          "indexed": true,
          "internalType": "address",
          "name": "user",
          "type": "address"
        },
        {
          "indexed": false,
          "internalType": "uint256",
          "name": "timestamp",
          "type": "uint256"
        },
        {
          "indexed": false,
          "internalType": "string",
          "name": "message",
          "type": "string"
        },
        {
          "indexed": false,
          "internalType": "uint24",
          "name": "dayTimeInSeconds",
          "type": "uint24"
        }
      ],
      "name": "MessageChanged",
      "type": "event"
    },
    {
      "inputs": [
        {
          "internalType": "address payable",
          "name": "to",
          "type": "address"
        },
        {
          "internalType": "bool",
          "name": "yes",
          "type": "bool"
        }
      ],
      "name": "delegate",
      "outputs": [],
      "stateMutability": "payable",
      "type": "function"
    },
    {
      "inputs": [
        {
          "internalType": "address",
          "name": "account",
          "type": "address"
        },
        {
          "internalType": "address",
          "name": "delegated",
          "type": "address"
        }
      ],
      "name": "isDelegate",
      "outputs": [
        {
          "internalType": "bool",
          "name": "yes",
          "type": "bool"
        }
      ],
      "stateMutability": "view",
      "type": "function"
    },
    {
      "inputs": [
        {
          "internalType": "address",
          "name": "user",
          "type": "address"
        }
      ],
      "name": "lastGreetingOf",
      "outputs": [
        {
          "internalType": "string",
          "name": "greeting",
          "type": "string"
        }
      ],
      "stateMutability": "view",
      "type": "function"
    },
    {
      "inputs": [
        {
          "internalType": "address",
          "name": "user",
          "type": "address"
        }
      ],
      "name": "messages",
      "outputs": [
        {
          "components": [
            {
              "internalType": "string",
              "name": "content",
              "type": "string"
            },
            {
              "internalType": "uint256",
              "name": "timestamp",
              "type": "uint256"
            },
            {
              "internalType": "uint24",
              "name": "dayTimeInSeconds",
              "type": "uint24"
            }
          ],
          "internalType": "struct GreetingsRegistry.Message",
          "name": "userMsg",
          "type": "tuple"
        }
      ],
      "stateMutability": "view",
      "type": "function"
    },
    {
      "inputs": [
        {
          "internalType": "string",
          "name": "initialPrefix",
          "type": "string"
        }
      ],
      "name": "postUpgrade",
      "outputs": [],
      "stateMutability": "nonpayable",
      "type": "function"
    },
    {
      "inputs": [],
      "name": "prefix",
      "outputs": [
        {
          "internalType": "string",
          "name": "value",
          "type": "string"
        }
      ],
      "stateMutability": "view",
      "type": "function"
    },
    {
      "inputs": [
        {
          "internalType": "string",
          "name": "message",
          "type": "string"
        },
        {
          "internalType": "uint24",
          "name": "dayTimeInSeconds",
          "type": "uint24"
        }
      ],
      "name": "setMessage",
      "outputs": [],
      "stateMutability": "nonpayable",
      "type": "function"
    },
    {
      "inputs": [
        {
          "internalType": "address",
          "name": "account",
          "type": "address"
        },
        {
          "internalType": "string",
          "name": "message",
          "type": "string"
        },
        {
          "internalType": "uint24",
          "name": "dayTimeInSeconds",
          "type": "uint24"
        }
      ],
      "name": "setMessageFor",
      "outputs": [],
      "stateMutability": "nonpayable",
      "type": "function"
    }
  ],
  "contractName": "GreetingsRegistry",
  "sourceName": "src/GreetingsRegistry.sol",
  "linkReferences": {},
  "deployedLinkReferences": {},
  "devdoc": {
    "events": {
      "Delegated(address,address,bool)": {
        "params": {
          "delegated": "address that will be able to set message if delegated",
          "user": "the user that delegate its rights",
          "yes": "whether to delegate or revoke"
        }
      },
      "MessageChanged(address,uint256,string,uint24)": {
        "details": "the timestamp is included to speedup indexing see: https://ethereum-magicians.org/t/proposal-for-adding-blocktimestamp-to-logs-object-returned-by-eth-getlogs-and-related-requests/11183",
        "params": {
          "dayTimeInSeconds": "the time of the day in seconds where 00:00 => 0 and 23:59 => 82859",
          "message": "the message content",
          "timestamp": "the time at which the message was recorded",
          "user": "the user that send the message"
        }
      }
    },
    "kind": "dev",
    "methods": {
      "constructor": {
        "details": "constructors",
        "params": {
          "initialPrefix": "the prefix that will be prepended to every user message goig forward"
        }
      },
      "delegate(address,bool)": {
        "params": {
          "to": "address which will be given the right to delegate",
          "yes": "whether to give the right or revoke it"
        }
      },
      "isDelegate(address,address)": {
        "params": {
          "account": "address being queried",
          "delegated": "the account which has right to set message"
        },
        "returns": {
          "yes": "whether `delegated` has the right to set message"
        }
      },
      "lastGreetingOf(address)": {
        "params": {
          "user": "address of the user."
        },
        "returns": {
          "greeting": "the message's content send by the user."
        }
      },
      "messages(address)": {
        "params": {
          "user": "address of the user."
        },
        "returns": {
          "userMsg": "the message send by the user."
        }
      },
      "postUpgrade(string)": {
        "details": "called by the admin when the contract is deployed as a proxy",
        "params": {
          "initialPrefix": "the prefix that will be prepended to every user message goig forward"
        }
      },
      "prefix()": {
        "returns": {
          "value": "prefix string."
        }
      },
      "setMessage(string,uint24)": {
        "params": {
          "dayTimeInSeconds": "the time of the day in seconds the message was written.",
          "message": "the value to set as content."
        }
      },
      "setMessageFor(address,string,uint24)": {
        "params": {
          "account": "address which will have its greetings set",
          "dayTimeInSeconds": "the time of the day in seconds the message was written.",
          "message": "the value to set as content."
        }
      }
    },
    "version": 1
  },
  "evm": {
    "bytecode": {
      "linkReferences": {},
      "object": "60806040523461021a576110f08038038061001981610233565b928339810190602090818184031261021a5780516001600160401b039182821161021a570191601f9084828501121561021a5783518381116101f957601f199461006882850187168401610233565b9682885283838301011161021a57829060005b83811061021f575050600091870101527fb53127684a568b3173ae13b9f8a6016e243e63b6e8ee1178d6a717850b5d610380546001600160a01b03919082168061020f5750555b84519283116101f95760019384548581811c911680156101ef575b838210146101d957838111610193575b5081928411600114610134575050819293600092610129575b5050600019600383901b1c191690821b1790555b604051610e9790816102598239f35b015190503880610106565b6000858152828120918516969193925b87821061017c57505083859610610163575b505050811b01905561011a565b015160001960f88460031b161c19169055388080610156565b808785968294968601518155019501930190610144565b85600052826000208480870160051c8201928588106101d0575b0160051c019086905b8281106101c45750506100ed565b600081550186906101b6565b925081926101ad565b634e487b7160e01b600052602260045260246000fd5b90607f16906100dd565b634e487b7160e01b600052604160045260246000fd5b9150503303156100c2575b600080fd5b81810183015189820184015284920161007b565b6040519190601f01601f191682016001600160401b038111838210176101f95760405256fe60406080815260048036101561001457600080fd5b600090813560e01c806303433b8e1461084e578063334c9bba146107325780634c2dd808146106c85780635fdd59f8146105f55780635fec5d0b1461057557806375dadb3214610447578063982ef0a7146103555763b1441ce61461007857600080fd5b3461035157602090817ffffffffffffffffffffffffffffffffffffffffffffffffffffffffffffffffc36011261034d5780359367ffffffffffffffff9182861161031957366023870112156103195785810135838111610321577fffffffffffffffffffffffffffffffffffffffffffffffffffffffffffffffe09251966101088685601f85011601896109c3565b818852366024838301011161031d578187926024889301838b01378801015273ffffffffffffffffffffffffffffffffffffffff7fb53127684a568b3173ae13b9f8a6016e243e63b6e8ee1178d6a717850b5d610381815416801560001461030e5750555b85519283116102e257506001926101848454610a04565b601f811161027e575b508091601f84116001146101e65750508394829394926101db575b50507fffffffffffffffffffffffffffffffffffffffffffffffffffffffffffffffff82841b9260031b1c191617905580f35b0151905038806101a8565b8486528316957fb10e2d527612073b26eecdfd717e6a320cf44b4afac2b0732d9fcbe2b7fa0cf6929186905b8882106102675750508385969710610230575b505050811b01905580f35b01517fffffffffffffffffffffffffffffffffffffffffffffffffffffffffffffffff60f88460031b161c19169055388080610225565b808785968294968601518155019501930190610212565b8486527fb10e2d527612073b26eecdfd717e6a320cf44b4afac2b0732d9fcbe2b7fa0cf6601f850160051c8101918386106102d8575b601f0160051c019085905b8281106102cd57505061018d565b8781550185906102bf565b90915081906102b4565b8460416024927f4e487b7100000000000000000000000000000000000000000000000000000000835252fd5b91505033031561016d575b8480fd5b8680fd5b6024866041847f4e487b7100000000000000000000000000000000000000000000000000000000835252fd5b8280fd5b5080fd5b508290817ffffffffffffffffffffffffffffffffffffffffffffffffffffffffffffffffc36011261034d57359073ffffffffffffffffffffffffffffffffffffffff821680920361034d5760243590811515809203610443578380341561043a575b81808092873491f1156104315733845260026020528084208385526020528084207fffffffffffffffffffffffffffffffffffffffffffffffffffffffffffffff0081541660ff8416179055519081527fb1247c60c1f535e393496ecb92a45670b346b057bf9e382c99cb0dca11ee8abc60203392a380f35b513d84823e3d90fd5b506108fc6103b8565b8380fd5b50503461057257807ffffffffffffffffffffffffffffffffffffffffffffffffffffffffffffffffc3601126105725781519182826001936001549461048c86610a04565b918285526020968760018216918260001461052d5750506001146104d1575b5050506104cd92916104be9103856109c3565b519282849384528301906108ec565b0390f35b9190869350600183527fb10e2d527612073b26eecdfd717e6a320cf44b4afac2b0732d9fcbe2b7fa0cf65b82841061051557505050820101816104be6104cd6104ab565b8054848a0186015288955087949093019281016104fc565b7fffffffffffffffffffffffffffffffffffffffffffffffffffffffffffffff00168782015293151560051b860190930193508492506104be91506104cd90506104ab565b80fd5b82843461035157807ffffffffffffffffffffffffffffffffffffffffffffffffffffffffffffffffc360112610351576105ad6108c4565b6024359073ffffffffffffffffffffffffffffffffffffffff90818316809303610319579360ff92849260209616825260028652828220908252855220541690519015158152f35b828434610351576020807ffffffffffffffffffffffffffffffffffffffffffffffffffffffffffffffffc36011261034d5760028260609473ffffffffffffffffffffffffffffffffffffffff61064a6108c4565b8284805161065781610978565b8a815282898201520152168152808452209183519361067585610978565b61067e84610a57565b85526106b760018501549483870195865262ffffff948591015416928287019384528251978897828952519188015260808701906108ec565b935190850152511660608301520390f35b50823461034d577ffffffffffffffffffffffffffffffffffffffffffffffffffffffffffffffffc3601126103515780359067ffffffffffffffff821161034d576107159136910161094a565b6024359062ffffff821682036104435761072f9233610b1b565b80f35b50346103515760607ffffffffffffffffffffffffffffffffffffffffffffffffffffffffffffffffc3601126103515761076a6108c4565b60243567ffffffffffffffff811161044357610789903690840161094a565b916044359362ffffff8516850361084a5773ffffffffffffffffffffffffffffffffffffffff821680331490811561082b575b50156107ce575061072f949550610b1b565b60649060208851917f08c379a0000000000000000000000000000000000000000000000000000000008352820152600e60248201527f4e4f545f415554484f52495a45440000000000000000000000000000000000006044820152fd5b90508652600260205286862033875260205260ff8787205416386107bc565b8580fd5b8284346103515760207ffffffffffffffffffffffffffffffffffffffffffffffffffffffffffffffffc360112610351576108b1816104cd9373ffffffffffffffffffffffffffffffffffffffff6108a46108c4565b1681528060205220610a57565b90519182916020835260208301906108ec565b6004359073ffffffffffffffffffffffffffffffffffffffff821682036108e757565b600080fd5b919082519283825260005b8481106109365750507fffffffffffffffffffffffffffffffffffffffffffffffffffffffffffffffe0601f8460006020809697860101520116010190565b6020818301810151848301820152016108f7565b9181601f840112156108e75782359167ffffffffffffffff83116108e757602083818601950101116108e757565b6060810190811067ffffffffffffffff82111761099457604052565b7f4e487b7100000000000000000000000000000000000000000000000000000000600052604160045260246000fd5b90601f7fffffffffffffffffffffffffffffffffffffffffffffffffffffffffffffffe0910116810190811067ffffffffffffffff82111761099457604052565b90600182811c92168015610a4d575b6020831014610a1e57565b7f4e487b7100000000000000000000000000000000000000000000000000000000600052602260045260246000fd5b91607f1691610a13565b90604051918260008254610a6a81610a04565b90818452602094600191600181169081600014610ada5750600114610a9b575b505050610a99925003836109c3565b565b600090815285812095935091905b818310610ac2575050610a999350820101388080610a8a565b85548884018501529485019487945091830191610aa9565b915050610a999593507fffffffffffffffffffffffffffffffffffffffffffffffffffffffffffffff0091501682840152151560051b820101388080610a8a565b6040918251908160209560006001938454610b3581610a04565b90848b8883169283600014610e2757505050600114610dcc575b508290823701600081520395610b8b7fffffffffffffffffffffffffffffffffffffffffffffffffffffffffffffffe0978881018552846109c3565b8451610b9681610978565b838152868101924284528682019373ffffffffffffffffffffffffffffffffffffffff62ffffff8095169788875216998a60005260008a528860002093519081519167ffffffffffffffff8311610994578b610bf28754610a04565b601f8111610d81575b50508b91601f8411600114610cd2575093610cbe96938360029460609d9b98947f4650083cdd22f274f233c0ae8b1e5a23037ced29923011d703349cdeeface1af9f9d9b98600092610cc7575b50507fffffffffffffffffffffffffffffffffffffffffffffffffffffffffffffffff82851b9260031b1c19161783555b5190820155019151167fffffffffffffffffffffffffffffffffffffffffffffffffffffffffff000000825416179055835195869542875286015260608501906108ec565b918301520390a2565b015190503880610c48565b60008781528d81209392918516905b818110610d6c5750958460609d9b98947f4650083cdd22f274f233c0ae8b1e5a23037ced29923011d703349cdeeface1af9f9d9b9894610cbe9b9894600298859710610d35575b505050811b018355610c79565b01517fffffffffffffffffffffffffffffffffffffffffffffffffffffffffffffffff60f88460031b161c19169055388080610d28565b82840151855593870193928e01928e01610ce1565b876000528160002090601f860160051c8201928610610dc2575b601f0160051c019086905b828110610db657508d9150610bfb565b60008155018690610da6565b9091508190610d9b565b89919250856000527fb10e2d527612073b26eecdfd717e6a320cf44b4afac2b0732d9fcbe2b7fa0cf6866000915b838310610e0e575050508401019082610b4f565b80548a84018601528997508c9490920191889101610dfa565b7fffffffffffffffffffffffffffffffffffffffffffffffffffffffffffffff00168882015283151590930287019092019350610b4f905056fea264697066735822122084a2cb29df0831dd62640625e271ba58b0d065dc689f20822f9a440a5787b08c64736f6c63430008190033",
      "opcodes": "PUSH1 0x80 PUSH1 0x40 MSTORE CALLVALUE PUSH2 0x21A JUMPI PUSH2 0x10F0 DUP1 CODESIZE SUB DUP1 PUSH2 0x19 DUP2 PUSH2 0x233 JUMP JUMPDEST SWAP3 DUP4 CODECOPY DUP2 ADD SWAP1 PUSH1 0x20 SWAP1 DUP2 DUP2 DUP5 SUB SLT PUSH2 0x21A JUMPI DUP1 MLOAD PUSH1 0x1 PUSH1 0x1 PUSH1 0x40 SHL SUB SWAP2 DUP3 DUP3 GT PUSH2 0x21A JUMPI ADD SWAP2 PUSH1 0x1F SWAP1 DUP5 DUP3 DUP6 ADD SLT ISZERO PUSH2 0x21A JUMPI DUP4 MLOAD DUP4 DUP2 GT PUSH2 0x1F9 JUMPI PUSH1 0x1F NOT SWAP5 PUSH2 0x68 DUP3 DUP6 ADD DUP8 AND DUP5 ADD PUSH2 0x233 JUMP JUMPDEST SWAP7 DUP3 DUP9 MSTORE DUP4 DUP4 DUP4 ADD ADD GT PUSH2 0x21A JUMPI DUP3 SWAP1 PUSH1 0x0 JUMPDEST DUP4 DUP2 LT PUSH2 0x21F JUMPI POP POP PUSH1 0x0 SWAP2 DUP8 ADD ADD MSTORE PUSH32 0xB53127684A568B3173AE13B9F8A6016E243E63B6E8EE1178D6A717850B5D6103 DUP1 SLOAD PUSH1 0x1 PUSH1 0x1 PUSH1 0xA0 SHL SUB SWAP2 SWAP1 DUP3 AND DUP1 PUSH2 0x20F JUMPI POP SSTORE JUMPDEST DUP5 MLOAD SWAP3 DUP4 GT PUSH2 0x1F9 JUMPI PUSH1 0x1 SWAP4 DUP5 SLOAD DUP6 DUP2 DUP2 SHR SWAP2 AND DUP1 ISZERO PUSH2 0x1EF JUMPI JUMPDEST DUP4 DUP3 LT EQ PUSH2 0x1D9 JUMPI DUP4 DUP2 GT PUSH2 0x193 JUMPI JUMPDEST POP DUP2 SWAP3 DUP5 GT PUSH1 0x1 EQ PUSH2 0x134 JUMPI POP POP DUP2 SWAP3 SWAP4 PUSH1 0x0 SWAP3 PUSH2 0x129 JUMPI JUMPDEST POP POP PUSH1 0x0 NOT PUSH1 0x3 DUP4 SWAP1 SHL SHR NOT AND SWAP1 DUP3 SHL OR SWAP1 SSTORE JUMPDEST PUSH1 0x40 MLOAD PUSH2 0xE97 SWAP1 DUP2 PUSH2 0x259 DUP3 CODECOPY RETURN JUMPDEST ADD MLOAD SWAP1 POP CODESIZE DUP1 PUSH2 0x106 JUMP JUMPDEST PUSH1 0x0 DUP6 DUP2 MSTORE DUP3 DUP2 KECCAK256 SWAP2 DUP6 AND SWAP7 SWAP2 SWAP4 SWAP3 JUMPDEST DUP8 DUP3 LT PUSH2 0x17C JUMPI POP POP DUP4 DUP6 SWAP7 LT PUSH2 0x163 JUMPI JUMPDEST POP POP POP DUP2 SHL ADD SWAP1 SSTORE PUSH2 0x11A JUMP JUMPDEST ADD MLOAD PUSH1 0x0 NOT PUSH1 0xF8 DUP5 PUSH1 0x3 SHL AND SHR NOT AND SWAP1 SSTORE CODESIZE DUP1 DUP1 PUSH2 0x156 JUMP JUMPDEST DUP1 DUP8 DUP6 SWAP7 DUP3 SWAP5 SWAP7 DUP7 ADD MLOAD DUP2 SSTORE ADD SWAP6 ADD SWAP4 ADD SWAP1 PUSH2 0x144 JUMP JUMPDEST DUP6 PUSH1 0x0 MSTORE DUP3 PUSH1 0x0 KECCAK256 DUP5 DUP1 DUP8 ADD PUSH1 0x5 SHR DUP3 ADD SWAP3 DUP6 DUP9 LT PUSH2 0x1D0 JUMPI JUMPDEST ADD PUSH1 0x5 SHR ADD SWAP1 DUP7 SWAP1 JUMPDEST DUP3 DUP2 LT PUSH2 0x1C4 JUMPI POP POP PUSH2 0xED JUMP JUMPDEST PUSH1 0x0 DUP2 SSTORE ADD DUP7 SWAP1 PUSH2 0x1B6 JUMP JUMPDEST SWAP3 POP DUP2 SWAP3 PUSH2 0x1AD JUMP JUMPDEST PUSH4 0x4E487B71 PUSH1 0xE0 SHL PUSH1 0x0 MSTORE PUSH1 0x22 PUSH1 0x4 MSTORE PUSH1 0x24 PUSH1 0x0 REVERT JUMPDEST SWAP1 PUSH1 0x7F AND SWAP1 PUSH2 0xDD JUMP JUMPDEST PUSH4 0x4E487B71 PUSH1 0xE0 SHL PUSH1 0x0 MSTORE PUSH1 0x41 PUSH1 0x4 MSTORE PUSH1 0x24 PUSH1 0x0 REVERT JUMPDEST SWAP2 POP POP CALLER SUB ISZERO PUSH2 0xC2 JUMPI JUMPDEST PUSH1 0x0 DUP1 REVERT JUMPDEST DUP2 DUP2 ADD DUP4 ADD MLOAD DUP10 DUP3 ADD DUP5 ADD MSTORE DUP5 SWAP3 ADD PUSH2 0x7B JUMP JUMPDEST PUSH1 0x40 MLOAD SWAP2 SWAP1 PUSH1 0x1F ADD PUSH1 0x1F NOT AND DUP3 ADD PUSH1 0x1 PUSH1 0x1 PUSH1 0x40 SHL SUB DUP2 GT DUP4 DUP3 LT OR PUSH2 0x1F9 JUMPI PUSH1 0x40 MSTORE JUMP INVALID PUSH1 0x40 PUSH1 0x80 DUP2 MSTORE PUSH1 0x4 DUP1 CALLDATASIZE LT ISZERO PUSH2 0x14 JUMPI PUSH1 0x0 DUP1 REVERT JUMPDEST PUSH1 0x0 SWAP1 DUP2 CALLDATALOAD PUSH1 0xE0 SHR DUP1 PUSH4 0x3433B8E EQ PUSH2 0x84E JUMPI DUP1 PUSH4 0x334C9BBA EQ PUSH2 0x732 JUMPI DUP1 PUSH4 0x4C2DD808 EQ PUSH2 0x6C8 JUMPI DUP1 PUSH4 0x5FDD59F8 EQ PUSH2 0x5F5 JUMPI DUP1 PUSH4 0x5FEC5D0B EQ PUSH2 0x575 JUMPI DUP1 PUSH4 0x75DADB32 EQ PUSH2 0x447 JUMPI DUP1 PUSH4 0x982EF0A7 EQ PUSH2 0x355 JUMPI PUSH4 0xB1441CE6 EQ PUSH2 0x78 JUMPI PUSH1 0x0 DUP1 REVERT JUMPDEST CALLVALUE PUSH2 0x351 JUMPI PUSH1 0x20 SWAP1 DUP2 PUSH32 0xFFFFFFFFFFFFFFFFFFFFFFFFFFFFFFFFFFFFFFFFFFFFFFFFFFFFFFFFFFFFFFFC CALLDATASIZE ADD SLT PUSH2 0x34D JUMPI DUP1 CALLDATALOAD SWAP4 PUSH8 0xFFFFFFFFFFFFFFFF SWAP2 DUP3 DUP7 GT PUSH2 0x319 JUMPI CALLDATASIZE PUSH1 0x23 DUP8 ADD SLT ISZERO PUSH2 0x319 JUMPI DUP6 DUP2 ADD CALLDATALOAD DUP4 DUP2 GT PUSH2 0x321 JUMPI PUSH32 0xFFFFFFFFFFFFFFFFFFFFFFFFFFFFFFFFFFFFFFFFFFFFFFFFFFFFFFFFFFFFFFE0 SWAP3 MLOAD SWAP7 PUSH2 0x108 DUP7 DUP6 PUSH1 0x1F DUP6 ADD AND ADD DUP10 PUSH2 0x9C3 JUMP JUMPDEST DUP2 DUP9 MSTORE CALLDATASIZE PUSH1 0x24 DUP4 DUP4 ADD ADD GT PUSH2 0x31D JUMPI DUP2 DUP8 SWAP3 PUSH1 0x24 DUP9 SWAP4 ADD DUP4 DUP12 ADD CALLDATACOPY DUP9 ADD ADD MSTORE PUSH20 0xFFFFFFFFFFFFFFFFFFFFFFFFFFFFFFFFFFFFFFFF PUSH32 0xB53127684A568B3173AE13B9F8A6016E243E63B6E8EE1178D6A717850B5D6103 DUP2 DUP2 SLOAD AND DUP1 ISZERO PUSH1 0x0 EQ PUSH2 0x30E JUMPI POP SSTORE JUMPDEST DUP6 MLOAD SWAP3 DUP4 GT PUSH2 0x2E2 JUMPI POP PUSH1 0x1 SWAP3 PUSH2 0x184 DUP5 SLOAD PUSH2 0xA04 JUMP JUMPDEST PUSH1 0x1F DUP2 GT PUSH2 0x27E JUMPI JUMPDEST POP DUP1 SWAP2 PUSH1 0x1F DUP5 GT PUSH1 0x1 EQ PUSH2 0x1E6 JUMPI POP POP DUP4 SWAP5 DUP3 SWAP4 SWAP5 SWAP3 PUSH2 0x1DB JUMPI JUMPDEST POP POP PUSH32 0xFFFFFFFFFFFFFFFFFFFFFFFFFFFFFFFFFFFFFFFFFFFFFFFFFFFFFFFFFFFFFFFF DUP3 DUP5 SHL SWAP3 PUSH1 0x3 SHL SHR NOT AND OR SWAP1 SSTORE DUP1 RETURN JUMPDEST ADD MLOAD SWAP1 POP CODESIZE DUP1 PUSH2 0x1A8 JUMP JUMPDEST DUP5 DUP7 MSTORE DUP4 AND SWAP6 PUSH32 0xB10E2D527612073B26EECDFD717E6A320CF44B4AFAC2B0732D9FCBE2B7FA0CF6 SWAP3 SWAP2 DUP7 SWAP1 JUMPDEST DUP9 DUP3 LT PUSH2 0x267 JUMPI POP POP DUP4 DUP6 SWAP7 SWAP8 LT PUSH2 0x230 JUMPI JUMPDEST POP POP POP DUP2 SHL ADD SWAP1 SSTORE DUP1 RETURN JUMPDEST ADD MLOAD PUSH32 0xFFFFFFFFFFFFFFFFFFFFFFFFFFFFFFFFFFFFFFFFFFFFFFFFFFFFFFFFFFFFFFFF PUSH1 0xF8 DUP5 PUSH1 0x3 SHL AND SHR NOT AND SWAP1 SSTORE CODESIZE DUP1 DUP1 PUSH2 0x225 JUMP JUMPDEST DUP1 DUP8 DUP6 SWAP7 DUP3 SWAP5 SWAP7 DUP7 ADD MLOAD DUP2 SSTORE ADD SWAP6 ADD SWAP4 ADD SWAP1 PUSH2 0x212 JUMP JUMPDEST DUP5 DUP7 MSTORE PUSH32 0xB10E2D527612073B26EECDFD717E6A320CF44B4AFAC2B0732D9FCBE2B7FA0CF6 PUSH1 0x1F DUP6 ADD PUSH1 0x5 SHR DUP2 ADD SWAP2 DUP4 DUP7 LT PUSH2 0x2D8 JUMPI JUMPDEST PUSH1 0x1F ADD PUSH1 0x5 SHR ADD SWAP1 DUP6 SWAP1 JUMPDEST DUP3 DUP2 LT PUSH2 0x2CD JUMPI POP POP PUSH2 0x18D JUMP JUMPDEST DUP8 DUP2 SSTORE ADD DUP6 SWAP1 PUSH2 0x2BF JUMP JUMPDEST SWAP1 SWAP2 POP DUP2 SWAP1 PUSH2 0x2B4 JUMP JUMPDEST DUP5 PUSH1 0x41 PUSH1 0x24 SWAP3 PUSH32 0x4E487B7100000000000000000000000000000000000000000000000000000000 DUP4 MSTORE MSTORE REVERT JUMPDEST SWAP2 POP POP CALLER SUB ISZERO PUSH2 0x16D JUMPI JUMPDEST DUP5 DUP1 REVERT JUMPDEST DUP7 DUP1 REVERT JUMPDEST PUSH1 0x24 DUP7 PUSH1 0x41 DUP5 PUSH32 0x4E487B7100000000000000000000000000000000000000000000000000000000 DUP4 MSTORE MSTORE REVERT JUMPDEST DUP3 DUP1 REVERT JUMPDEST POP DUP1 REVERT JUMPDEST POP DUP3 SWAP1 DUP2 PUSH32 0xFFFFFFFFFFFFFFFFFFFFFFFFFFFFFFFFFFFFFFFFFFFFFFFFFFFFFFFFFFFFFFFC CALLDATASIZE ADD SLT PUSH2 0x34D JUMPI CALLDATALOAD SWAP1 PUSH20 0xFFFFFFFFFFFFFFFFFFFFFFFFFFFFFFFFFFFFFFFF DUP3 AND DUP1 SWAP3 SUB PUSH2 0x34D JUMPI PUSH1 0x24 CALLDATALOAD SWAP1 DUP2 ISZERO ISZERO DUP1 SWAP3 SUB PUSH2 0x443 JUMPI DUP4 DUP1 CALLVALUE ISZERO PUSH2 0x43A JUMPI JUMPDEST DUP2 DUP1 DUP1 SWAP3 DUP8 CALLVALUE SWAP2 CALL ISZERO PUSH2 0x431 JUMPI CALLER DUP5 MSTORE PUSH1 0x2 PUSH1 0x20 MSTORE DUP1 DUP5 KECCAK256 DUP4 DUP6 MSTORE PUSH1 0x20 MSTORE DUP1 DUP5 KECCAK256 PUSH32 0xFFFFFFFFFFFFFFFFFFFFFFFFFFFFFFFFFFFFFFFFFFFFFFFFFFFFFFFFFFFFFF00 DUP2 SLOAD AND PUSH1 0xFF DUP5 AND OR SWAP1 SSTORE MLOAD SWAP1 DUP2 MSTORE PUSH32 0xB1247C60C1F535E393496ECB92A45670B346B057BF9E382C99CB0DCA11EE8ABC PUSH1 0x20 CALLER SWAP3 LOG3 DUP1 RETURN JUMPDEST MLOAD RETURNDATASIZE DUP5 DUP3 RETURNDATACOPY RETURNDATASIZE SWAP1 REVERT JUMPDEST POP PUSH2 0x8FC PUSH2 0x3B8 JUMP JUMPDEST DUP4 DUP1 REVERT JUMPDEST POP POP CALLVALUE PUSH2 0x572 JUMPI DUP1 PUSH32 0xFFFFFFFFFFFFFFFFFFFFFFFFFFFFFFFFFFFFFFFFFFFFFFFFFFFFFFFFFFFFFFFC CALLDATASIZE ADD SLT PUSH2 0x572 JUMPI DUP2 MLOAD SWAP2 DUP3 DUP3 PUSH1 0x1 SWAP4 PUSH1 0x1 SLOAD SWAP5 PUSH2 0x48C DUP7 PUSH2 0xA04 JUMP JUMPDEST SWAP2 DUP3 DUP6 MSTORE PUSH1 0x20 SWAP7 DUP8 PUSH1 0x1 DUP3 AND SWAP2 DUP3 PUSH1 0x0 EQ PUSH2 0x52D JUMPI POP POP PUSH1 0x1 EQ PUSH2 0x4D1 JUMPI JUMPDEST POP POP POP PUSH2 0x4CD SWAP3 SWAP2 PUSH2 0x4BE SWAP2 SUB DUP6 PUSH2 0x9C3 JUMP JUMPDEST MLOAD SWAP3 DUP3 DUP5 SWAP4 DUP5 MSTORE DUP4 ADD SWAP1 PUSH2 0x8EC JUMP JUMPDEST SUB SWAP1 RETURN JUMPDEST SWAP2 SWAP1 DUP7 SWAP4 POP PUSH1 0x1 DUP4 MSTORE PUSH32 0xB10E2D527612073B26EECDFD717E6A320CF44B4AFAC2B0732D9FCBE2B7FA0CF6 JUMPDEST DUP3 DUP5 LT PUSH2 0x515 JUMPI POP POP POP DUP3 ADD ADD DUP2 PUSH2 0x4BE PUSH2 0x4CD PUSH2 0x4AB JUMP JUMPDEST DUP1 SLOAD DUP5 DUP11 ADD DUP7 ADD MSTORE DUP9 SWAP6 POP DUP8 SWAP5 SWAP1 SWAP4 ADD SWAP3 DUP2 ADD PUSH2 0x4FC JUMP JUMPDEST PUSH32 0xFFFFFFFFFFFFFFFFFFFFFFFFFFFFFFFFFFFFFFFFFFFFFFFFFFFFFFFFFFFFFF00 AND DUP8 DUP3 ADD MSTORE SWAP4 ISZERO ISZERO PUSH1 0x5 SHL DUP7 ADD SWAP1 SWAP4 ADD SWAP4 POP DUP5 SWAP3 POP PUSH2 0x4BE SWAP2 POP PUSH2 0x4CD SWAP1 POP PUSH2 0x4AB JUMP JUMPDEST DUP1 REVERT JUMPDEST DUP3 DUP5 CALLVALUE PUSH2 0x351 JUMPI DUP1 PUSH32 0xFFFFFFFFFFFFFFFFFFFFFFFFFFFFFFFFFFFFFFFFFFFFFFFFFFFFFFFFFFFFFFFC CALLDATASIZE ADD SLT PUSH2 0x351 JUMPI PUSH2 0x5AD PUSH2 0x8C4 JUMP JUMPDEST PUSH1 0x24 CALLDATALOAD SWAP1 PUSH20 0xFFFFFFFFFFFFFFFFFFFFFFFFFFFFFFFFFFFFFFFF SWAP1 DUP2 DUP4 AND DUP1 SWAP4 SUB PUSH2 0x319 JUMPI SWAP4 PUSH1 0xFF SWAP3 DUP5 SWAP3 PUSH1 0x20 SWAP7 AND DUP3 MSTORE PUSH1 0x2 DUP7 MSTORE DUP3 DUP3 KECCAK256 SWAP1 DUP3 MSTORE DUP6 MSTORE KECCAK256 SLOAD AND SWAP1 MLOAD SWAP1 ISZERO ISZERO DUP2 MSTORE RETURN JUMPDEST DUP3 DUP5 CALLVALUE PUSH2 0x351 JUMPI PUSH1 0x20 DUP1 PUSH32 0xFFFFFFFFFFFFFFFFFFFFFFFFFFFFFFFFFFFFFFFFFFFFFFFFFFFFFFFFFFFFFFFC CALLDATASIZE ADD SLT PUSH2 0x34D JUMPI PUSH1 0x2 DUP3 PUSH1 0x60 SWAP5 PUSH20 0xFFFFFFFFFFFFFFFFFFFFFFFFFFFFFFFFFFFFFFFF PUSH2 0x64A PUSH2 0x8C4 JUMP JUMPDEST DUP3 DUP5 DUP1 MLOAD PUSH2 0x657 DUP2 PUSH2 0x978 JUMP JUMPDEST DUP11 DUP2 MSTORE DUP3 DUP10 DUP3 ADD MSTORE ADD MSTORE AND DUP2 MSTORE DUP1 DUP5 MSTORE KECCAK256 SWAP2 DUP4 MLOAD SWAP4 PUSH2 0x675 DUP6 PUSH2 0x978 JUMP JUMPDEST PUSH2 0x67E DUP5 PUSH2 0xA57 JUMP JUMPDEST DUP6 MSTORE PUSH2 0x6B7 PUSH1 0x1 DUP6 ADD SLOAD SWAP5 DUP4 DUP8 ADD SWAP6 DUP7 MSTORE PUSH3 0xFFFFFF SWAP5 DUP6 SWAP2 ADD SLOAD AND SWAP3 DUP3 DUP8 ADD SWAP4 DUP5 MSTORE DUP3 MLOAD SWAP8 DUP9 SWAP8 DUP3 DUP10 MSTORE MLOAD SWAP2 DUP9 ADD MSTORE PUSH1 0x80 DUP8 ADD SWAP1 PUSH2 0x8EC JUMP JUMPDEST SWAP4 MLOAD SWAP1 DUP6 ADD MSTORE MLOAD AND PUSH1 0x60 DUP4 ADD MSTORE SUB SWAP1 RETURN JUMPDEST POP DUP3 CALLVALUE PUSH2 0x34D JUMPI PUSH32 0xFFFFFFFFFFFFFFFFFFFFFFFFFFFFFFFFFFFFFFFFFFFFFFFFFFFFFFFFFFFFFFFC CALLDATASIZE ADD SLT PUSH2 0x351 JUMPI DUP1 CALLDATALOAD SWAP1 PUSH8 0xFFFFFFFFFFFFFFFF DUP3 GT PUSH2 0x34D JUMPI PUSH2 0x715 SWAP2 CALLDATASIZE SWAP2 ADD PUSH2 0x94A JUMP JUMPDEST PUSH1 0x24 CALLDATALOAD SWAP1 PUSH3 0xFFFFFF DUP3 AND DUP3 SUB PUSH2 0x443 JUMPI PUSH2 0x72F SWAP3 CALLER PUSH2 0xB1B JUMP JUMPDEST DUP1 RETURN JUMPDEST POP CALLVALUE PUSH2 0x351 JUMPI PUSH1 0x60 PUSH32 0xFFFFFFFFFFFFFFFFFFFFFFFFFFFFFFFFFFFFFFFFFFFFFFFFFFFFFFFFFFFFFFFC CALLDATASIZE ADD SLT PUSH2 0x351 JUMPI PUSH2 0x76A PUSH2 0x8C4 JUMP JUMPDEST PUSH1 0x24 CALLDATALOAD PUSH8 0xFFFFFFFFFFFFFFFF DUP2 GT PUSH2 0x443 JUMPI PUSH2 0x789 SWAP1 CALLDATASIZE SWAP1 DUP5 ADD PUSH2 0x94A JUMP JUMPDEST SWAP2 PUSH1 0x44 CALLDATALOAD SWAP4 PUSH3 0xFFFFFF DUP6 AND DUP6 SUB PUSH2 0x84A JUMPI PUSH20 0xFFFFFFFFFFFFFFFFFFFFFFFFFFFFFFFFFFFFFFFF DUP3 AND DUP1 CALLER EQ SWAP1 DUP2 ISZERO PUSH2 0x82B JUMPI JUMPDEST POP ISZERO PUSH2 0x7CE JUMPI POP PUSH2 0x72F SWAP5 SWAP6 POP PUSH2 0xB1B JUMP JUMPDEST PUSH1 0x64 SWAP1 PUSH1 0x20 DUP9 MLOAD SWAP2 PUSH32 0x8C379A000000000000000000000000000000000000000000000000000000000 DUP4 MSTORE DUP3 ADD MSTORE PUSH1 0xE PUSH1 0x24 DUP3 ADD MSTORE PUSH32 0x4E4F545F415554484F52495A4544000000000000000000000000000000000000 PUSH1 0x44 DUP3 ADD MSTORE REVERT JUMPDEST SWAP1 POP DUP7 MSTORE PUSH1 0x2 PUSH1 0x20 MSTORE DUP7 DUP7 KECCAK256 CALLER DUP8 MSTORE PUSH1 0x20 MSTORE PUSH1 0xFF DUP8 DUP8 KECCAK256 SLOAD AND CODESIZE PUSH2 0x7BC JUMP JUMPDEST DUP6 DUP1 REVERT JUMPDEST DUP3 DUP5 CALLVALUE PUSH2 0x351 JUMPI PUSH1 0x20 PUSH32 0xFFFFFFFFFFFFFFFFFFFFFFFFFFFFFFFFFFFFFFFFFFFFFFFFFFFFFFFFFFFFFFFC CALLDATASIZE ADD SLT PUSH2 0x351 JUMPI PUSH2 0x8B1 DUP2 PUSH2 0x4CD SWAP4 PUSH20 0xFFFFFFFFFFFFFFFFFFFFFFFFFFFFFFFFFFFFFFFF PUSH2 0x8A4 PUSH2 0x8C4 JUMP JUMPDEST AND DUP2 MSTORE DUP1 PUSH1 0x20 MSTORE KECCAK256 PUSH2 0xA57 JUMP JUMPDEST SWAP1 MLOAD SWAP2 DUP3 SWAP2 PUSH1 0x20 DUP4 MSTORE PUSH1 0x20 DUP4 ADD SWAP1 PUSH2 0x8EC JUMP JUMPDEST PUSH1 0x4 CALLDATALOAD SWAP1 PUSH20 0xFFFFFFFFFFFFFFFFFFFFFFFFFFFFFFFFFFFFFFFF DUP3 AND DUP3 SUB PUSH2 0x8E7 JUMPI JUMP JUMPDEST PUSH1 0x0 DUP1 REVERT JUMPDEST SWAP2 SWAP1 DUP3 MLOAD SWAP3 DUP4 DUP3 MSTORE PUSH1 0x0 JUMPDEST DUP5 DUP2 LT PUSH2 0x936 JUMPI POP POP PUSH32 0xFFFFFFFFFFFFFFFFFFFFFFFFFFFFFFFFFFFFFFFFFFFFFFFFFFFFFFFFFFFFFFE0 PUSH1 0x1F DUP5 PUSH1 0x0 PUSH1 0x20 DUP1 SWAP7 SWAP8 DUP7 ADD ADD MSTORE ADD AND ADD ADD SWAP1 JUMP JUMPDEST PUSH1 0x20 DUP2 DUP4 ADD DUP2 ADD MLOAD DUP5 DUP4 ADD DUP3 ADD MSTORE ADD PUSH2 0x8F7 JUMP JUMPDEST SWAP2 DUP2 PUSH1 0x1F DUP5 ADD SLT ISZERO PUSH2 0x8E7 JUMPI DUP3 CALLDATALOAD SWAP2 PUSH8 0xFFFFFFFFFFFFFFFF DUP4 GT PUSH2 0x8E7 JUMPI PUSH1 0x20 DUP4 DUP2 DUP7 ADD SWAP6 ADD ADD GT PUSH2 0x8E7 JUMPI JUMP JUMPDEST PUSH1 0x60 DUP2 ADD SWAP1 DUP2 LT PUSH8 0xFFFFFFFFFFFFFFFF DUP3 GT OR PUSH2 0x994 JUMPI PUSH1 0x40 MSTORE JUMP JUMPDEST PUSH32 0x4E487B7100000000000000000000000000000000000000000000000000000000 PUSH1 0x0 MSTORE PUSH1 0x41 PUSH1 0x4 MSTORE PUSH1 0x24 PUSH1 0x0 REVERT JUMPDEST SWAP1 PUSH1 0x1F PUSH32 0xFFFFFFFFFFFFFFFFFFFFFFFFFFFFFFFFFFFFFFFFFFFFFFFFFFFFFFFFFFFFFFE0 SWAP2 ADD AND DUP2 ADD SWAP1 DUP2 LT PUSH8 0xFFFFFFFFFFFFFFFF DUP3 GT OR PUSH2 0x994 JUMPI PUSH1 0x40 MSTORE JUMP JUMPDEST SWAP1 PUSH1 0x1 DUP3 DUP2 SHR SWAP3 AND DUP1 ISZERO PUSH2 0xA4D JUMPI JUMPDEST PUSH1 0x20 DUP4 LT EQ PUSH2 0xA1E JUMPI JUMP JUMPDEST PUSH32 0x4E487B7100000000000000000000000000000000000000000000000000000000 PUSH1 0x0 MSTORE PUSH1 0x22 PUSH1 0x4 MSTORE PUSH1 0x24 PUSH1 0x0 REVERT JUMPDEST SWAP2 PUSH1 0x7F AND SWAP2 PUSH2 0xA13 JUMP JUMPDEST SWAP1 PUSH1 0x40 MLOAD SWAP2 DUP3 PUSH1 0x0 DUP3 SLOAD PUSH2 0xA6A DUP2 PUSH2 0xA04 JUMP JUMPDEST SWAP1 DUP2 DUP5 MSTORE PUSH1 0x20 SWAP5 PUSH1 0x1 SWAP2 PUSH1 0x1 DUP2 AND SWAP1 DUP2 PUSH1 0x0 EQ PUSH2 0xADA JUMPI POP PUSH1 0x1 EQ PUSH2 0xA9B JUMPI JUMPDEST POP POP POP PUSH2 0xA99 SWAP3 POP SUB DUP4 PUSH2 0x9C3 JUMP JUMPDEST JUMP JUMPDEST PUSH1 0x0 SWAP1 DUP2 MSTORE DUP6 DUP2 KECCAK256 SWAP6 SWAP4 POP SWAP2 SWAP1 JUMPDEST DUP2 DUP4 LT PUSH2 0xAC2 JUMPI POP POP PUSH2 0xA99 SWAP4 POP DUP3 ADD ADD CODESIZE DUP1 DUP1 PUSH2 0xA8A JUMP JUMPDEST DUP6 SLOAD DUP9 DUP5 ADD DUP6 ADD MSTORE SWAP5 DUP6 ADD SWAP5 DUP8 SWAP5 POP SWAP2 DUP4 ADD SWAP2 PUSH2 0xAA9 JUMP JUMPDEST SWAP2 POP POP PUSH2 0xA99 SWAP6 SWAP4 POP PUSH32 0xFFFFFFFFFFFFFFFFFFFFFFFFFFFFFFFFFFFFFFFFFFFFFFFFFFFFFFFFFFFFFF00 SWAP2 POP AND DUP3 DUP5 ADD MSTORE ISZERO ISZERO PUSH1 0x5 SHL DUP3 ADD ADD CODESIZE DUP1 DUP1 PUSH2 0xA8A JUMP JUMPDEST PUSH1 0x40 SWAP2 DUP3 MLOAD SWAP1 DUP2 PUSH1 0x20 SWAP6 PUSH1 0x0 PUSH1 0x1 SWAP4 DUP5 SLOAD PUSH2 0xB35 DUP2 PUSH2 0xA04 JUMP JUMPDEST SWAP1 DUP5 DUP12 DUP9 DUP4 AND SWAP3 DUP4 PUSH1 0x0 EQ PUSH2 0xE27 JUMPI POP POP POP PUSH1 0x1 EQ PUSH2 0xDCC JUMPI JUMPDEST POP DUP3 SWAP1 DUP3 CALLDATACOPY ADD PUSH1 0x0 DUP2 MSTORE SUB SWAP6 PUSH2 0xB8B PUSH32 0xFFFFFFFFFFFFFFFFFFFFFFFFFFFFFFFFFFFFFFFFFFFFFFFFFFFFFFFFFFFFFFE0 SWAP8 DUP9 DUP2 ADD DUP6 MSTORE DUP5 PUSH2 0x9C3 JUMP JUMPDEST DUP5 MLOAD PUSH2 0xB96 DUP2 PUSH2 0x978 JUMP JUMPDEST DUP4 DUP2 MSTORE DUP7 DUP2 ADD SWAP3 TIMESTAMP DUP5 MSTORE DUP7 DUP3 ADD SWAP4 PUSH20 0xFFFFFFFFFFFFFFFFFFFFFFFFFFFFFFFFFFFFFFFF PUSH3 0xFFFFFF DUP1 SWAP6 AND SWAP8 DUP9 DUP8 MSTORE AND SWAP10 DUP11 PUSH1 0x0 MSTORE PUSH1 0x0 DUP11 MSTORE DUP9 PUSH1 0x0 KECCAK256 SWAP4 MLOAD SWAP1 DUP2 MLOAD SWAP2 PUSH8 0xFFFFFFFFFFFFFFFF DUP4 GT PUSH2 0x994 JUMPI DUP12 PUSH2 0xBF2 DUP8 SLOAD PUSH2 0xA04 JUMP JUMPDEST PUSH1 0x1F DUP2 GT PUSH2 0xD81 JUMPI JUMPDEST POP POP DUP12 SWAP2 PUSH1 0x1F DUP5 GT PUSH1 0x1 EQ PUSH2 0xCD2 JUMPI POP SWAP4 PUSH2 0xCBE SWAP7 SWAP4 DUP4 PUSH1 0x2 SWAP5 PUSH1 0x60 SWAP14 SWAP12 SWAP9 SWAP5 PUSH32 0x4650083CDD22F274F233C0AE8B1E5A23037CED29923011D703349CDEEFACE1AF SWAP16 SWAP14 SWAP12 SWAP9 PUSH1 0x0 SWAP3 PUSH2 0xCC7 JUMPI JUMPDEST POP POP PUSH32 0xFFFFFFFFFFFFFFFFFFFFFFFFFFFFFFFFFFFFFFFFFFFFFFFFFFFFFFFFFFFFFFFF DUP3 DUP6 SHL SWAP3 PUSH1 0x3 SHL SHR NOT AND OR DUP4 SSTORE JUMPDEST MLOAD SWAP1 DUP3 ADD SSTORE ADD SWAP2 MLOAD AND PUSH32 0xFFFFFFFFFFFFFFFFFFFFFFFFFFFFFFFFFFFFFFFFFFFFFFFFFFFFFFFFFF000000 DUP3 SLOAD AND OR SWAP1 SSTORE DUP4 MLOAD SWAP6 DUP7 SWAP6 TIMESTAMP DUP8 MSTORE DUP7 ADD MSTORE PUSH1 0x60 DUP6 ADD SWAP1 PUSH2 0x8EC JUMP JUMPDEST SWAP2 DUP4 ADD MSTORE SUB SWAP1 LOG2 JUMP JUMPDEST ADD MLOAD SWAP1 POP CODESIZE DUP1 PUSH2 0xC48 JUMP JUMPDEST PUSH1 0x0 DUP8 DUP2 MSTORE DUP14 DUP2 KECCAK256 SWAP4 SWAP3 SWAP2 DUP6 AND SWAP1 JUMPDEST DUP2 DUP2 LT PUSH2 0xD6C JUMPI POP SWAP6 DUP5 PUSH1 0x60 SWAP14 SWAP12 SWAP9 SWAP5 PUSH32 0x4650083CDD22F274F233C0AE8B1E5A23037CED29923011D703349CDEEFACE1AF SWAP16 SWAP14 SWAP12 SWAP9 SWAP5 PUSH2 0xCBE SWAP12 SWAP9 SWAP5 PUSH1 0x2 SWAP9 DUP6 SWAP8 LT PUSH2 0xD35 JUMPI JUMPDEST POP POP POP DUP2 SHL ADD DUP4 SSTORE PUSH2 0xC79 JUMP JUMPDEST ADD MLOAD PUSH32 0xFFFFFFFFFFFFFFFFFFFFFFFFFFFFFFFFFFFFFFFFFFFFFFFFFFFFFFFFFFFFFFFF PUSH1 0xF8 DUP5 PUSH1 0x3 SHL AND SHR NOT AND SWAP1 SSTORE CODESIZE DUP1 DUP1 PUSH2 0xD28 JUMP JUMPDEST DUP3 DUP5 ADD MLOAD DUP6 SSTORE SWAP4 DUP8 ADD SWAP4 SWAP3 DUP15 ADD SWAP3 DUP15 ADD PUSH2 0xCE1 JUMP JUMPDEST DUP8 PUSH1 0x0 MSTORE DUP2 PUSH1 0x0 KECCAK256 SWAP1 PUSH1 0x1F DUP7 ADD PUSH1 0x5 SHR DUP3 ADD SWAP3 DUP7 LT PUSH2 0xDC2 JUMPI JUMPDEST PUSH1 0x1F ADD PUSH1 0x5 SHR ADD SWAP1 DUP7 SWAP1 JUMPDEST DUP3 DUP2 LT PUSH2 0xDB6 JUMPI POP DUP14 SWAP2 POP PUSH2 0xBFB JUMP JUMPDEST PUSH1 0x0 DUP2 SSTORE ADD DUP7 SWAP1 PUSH2 0xDA6 JUMP JUMPDEST SWAP1 SWAP2 POP DUP2 SWAP1 PUSH2 0xD9B JUMP JUMPDEST DUP10 SWAP2 SWAP3 POP DUP6 PUSH1 0x0 MSTORE PUSH32 0xB10E2D527612073B26EECDFD717E6A320CF44B4AFAC2B0732D9FCBE2B7FA0CF6 DUP7 PUSH1 0x0 SWAP2 JUMPDEST DUP4 DUP4 LT PUSH2 0xE0E JUMPI POP POP POP DUP5 ADD ADD SWAP1 DUP3 PUSH2 0xB4F JUMP JUMPDEST DUP1 SLOAD DUP11 DUP5 ADD DUP7 ADD MSTORE DUP10 SWAP8 POP DUP13 SWAP5 SWAP1 SWAP3 ADD SWAP2 DUP9 SWAP2 ADD PUSH2 0xDFA JUMP JUMPDEST PUSH32 0xFFFFFFFFFFFFFFFFFFFFFFFFFFFFFFFFFFFFFFFFFFFFFFFFFFFFFFFFFFFFFF00 AND DUP9 DUP3 ADD MSTORE DUP4 ISZERO ISZERO SWAP1 SWAP4 MUL DUP8 ADD SWAP1 SWAP3 ADD SWAP4 POP PUSH2 0xB4F SWAP1 POP JUMP INVALID LOG2 PUSH5 0x6970667358 0x22 SLT KECCAK256 DUP5 LOG2 0xCB 0x29 0xDF ADDMOD BALANCE 0xDD PUSH3 0x640625 0xE2 PUSH18 0xBA58B0D065DC689F20822F9A440A5787B08C PUSH5 0x736F6C6343 STOP ADDMOD NOT STOP CALLER "
    },
    "gasEstimates": {
      "creation": {
        "codeDepositCost": "747000",
        "executionCost": "infinite",
        "totalCost": "infinite"
      },
      "external": {
        "delegate(address,bool)": "infinite",
        "isDelegate(address,address)": "2607",
        "lastGreetingOf(address)": "infinite",
        "messages(address)": "infinite",
        "postUpgrade(string)": "infinite",
        "prefix()": "infinite",
        "setMessage(string,uint24)": "infinite",
        "setMessageFor(address,string,uint24)": "infinite"
      },
      "internal": {
        "_setMessageFor(address,string calldata,uint24)": "infinite"
      }
    },
    "methodIdentifiers": {
      "delegate(address,bool)": "982ef0a7",
      "isDelegate(address,address)": "5fec5d0b",
      "lastGreetingOf(address)": "03433b8e",
      "messages(address)": "5fdd59f8",
      "postUpgrade(string)": "b1441ce6",
      "prefix()": "75dadb32",
      "setMessage(string,uint24)": "4c2dd808",
      "setMessageFor(address,string,uint24)": "334c9bba"
    }
  },
  "storageLayout": {
    "storage": [
      {
        "astId": 142,
        "contract": "src/GreetingsRegistry.sol:GreetingsRegistry",
        "label": "_messages",
        "offset": 0,
        "slot": "0",
        "type": "t_mapping(t_address,t_struct(Message)137_storage)"
      },
      {
        "astId": 144,
        "contract": "src/GreetingsRegistry.sol:GreetingsRegistry",
        "label": "_prefix",
        "offset": 0,
        "slot": "1",
        "type": "t_string_storage"
      },
      {
        "astId": 150,
        "contract": "src/GreetingsRegistry.sol:GreetingsRegistry",
        "label": "_delegates",
        "offset": 0,
        "slot": "2",
        "type": "t_mapping(t_address,t_mapping(t_address,t_bool))"
      }
    ],
    "types": {
      "t_address": {
        "encoding": "inplace",
        "label": "address",
        "numberOfBytes": "20"
      },
      "t_bool": {
        "encoding": "inplace",
        "label": "bool",
        "numberOfBytes": "1"
      },
      "t_mapping(t_address,t_bool)": {
        "encoding": "mapping",
        "key": "t_address",
        "label": "mapping(address => bool)",
        "numberOfBytes": "32",
        "value": "t_bool"
      },
      "t_mapping(t_address,t_mapping(t_address,t_bool))": {
        "encoding": "mapping",
        "key": "t_address",
        "label": "mapping(address => mapping(address => bool))",
        "numberOfBytes": "32",
        "value": "t_mapping(t_address,t_bool)"
      },
      "t_mapping(t_address,t_struct(Message)137_storage)": {
        "encoding": "mapping",
        "key": "t_address",
        "label": "mapping(address => struct GreetingsRegistry.Message)",
        "numberOfBytes": "32",
        "value": "t_struct(Message)137_storage"
      },
      "t_string_storage": {
        "encoding": "bytes",
        "label": "string",
        "numberOfBytes": "32"
      },
      "t_struct(Message)137_storage": {
        "encoding": "inplace",
        "label": "struct GreetingsRegistry.Message",
        "members": [
          {
            "astId": 132,
            "contract": "src/GreetingsRegistry.sol:GreetingsRegistry",
            "label": "content",
            "offset": 0,
            "slot": "0",
            "type": "t_string_storage"
          },
          {
            "astId": 134,
            "contract": "src/GreetingsRegistry.sol:GreetingsRegistry",
            "label": "timestamp",
            "offset": 0,
            "slot": "1",
            "type": "t_uint256"
          },
          {
            "astId": 136,
            "contract": "src/GreetingsRegistry.sol:GreetingsRegistry",
            "label": "dayTimeInSeconds",
            "offset": 0,
            "slot": "2",
            "type": "t_uint24"
          }
        ],
        "numberOfBytes": "96"
      },
      "t_uint24": {
        "encoding": "inplace",
        "label": "uint24",
        "numberOfBytes": "3"
      },
      "t_uint256": {
        "encoding": "inplace",
        "label": "uint256",
        "numberOfBytes": "32"
      }
    }
  },
  "userdoc": {
    "events": {
      "Delegated(address,address,bool)": {
        "notice": "emitted whenever a user delegate the right to set a message to another account"
      },
      "MessageChanged(address,uint256,string,uint24)": {
        "notice": "emitted whenever a user set a new greeting to the world"
      }
    },
    "kind": "user",
    "methods": {
      "delegate(address,bool)": {
        "notice": "delegate the right to set message to another account"
      },
      "isDelegate(address,address)": {
        "notice": "return whether an account has right to set message on behalf of another"
      },
      "lastGreetingOf(address)": {
        "notice": "return the last greeting message from the given `user`."
      },
      "messages(address)": {
        "notice": "return the last message from the given `user`."
      },
      "prefix()": {
        "notice": "return the prefix that is appended to any new message."
      },
      "setMessage(string,uint24)": {
        "notice": "set a new message for `msg.sender`."
      },
      "setMessageFor(address,string,uint24)": {
        "notice": "set a new message for `msg.sender`."
      }
    },
    "notice": "a registry that let user send greetings to the world  It is used as a demo for jolly-roger,  a fully featured SDK to build entirely decentralised apps and games  It is inteded to be deployed via upgradeable proxy locally  to showcase the HCR (Hot Contract Replacement) capabilities of `hardhat-deploy`  but immutable on live networks.",
    "version": 1
  },
  "argsData": "0x0000000000000000000000007719544e6d30f69fa751302bcd3a745a7b32bd7f00000000000000000000000061c461ecc993aadeb7e4b47e96d1b8cc37314b2000000000000000000000000000000000000000000000000000000000000000600000000000000000000000000000000000000000000000000000000000000000",
  "transaction": {
    "hash": "0x2c79a04eeaa4e16c9693aeca2f2b30e761958873fa64d81a026ccb055a6a8260",
    "nonce": "0x1bd",
    "origin": "0x61c461ecc993aadeb7e4b47e96d1b8cc37314b20"
  },
  "updated": true,
  "_format": "hh-sol-artifact-1"
}